{
  "contractName": "ReverseAuction",
  "abi": [
    {
      "inputs": [
        {
          "internalType": "uint256",
          "name": "_numWinners",
          "type": "uint256"
        },
        {
          "internalType": "uint256",
          "name": "_maxBidAmount",
          "type": "uint256"
        }
      ],
      "stateMutability": "nonpayable",
      "type": "constructor"
    },
    {
      "inputs": [],
      "name": "auctionEnded",
      "outputs": [
        {
          "internalType": "bool",
          "name": "",
          "type": "bool"
        }
      ],
      "stateMutability": "view",
      "type": "function",
      "constant": true
    },
    {
      "inputs": [
        {
          "internalType": "uint256",
          "name": "",
          "type": "uint256"
        }
      ],
      "name": "bids",
      "outputs": [
        {
          "internalType": "address",
          "name": "bidder",
          "type": "address"
        },
        {
          "internalType": "uint256",
          "name": "amount",
          "type": "uint256"
        }
      ],
      "stateMutability": "view",
      "type": "function",
      "constant": true
    },
    {
      "inputs": [],
      "name": "maxBidAmount",
      "outputs": [
        {
          "internalType": "uint256",
          "name": "",
          "type": "uint256"
        }
      ],
      "stateMutability": "view",
      "type": "function",
      "constant": true
    },
    {
      "inputs": [],
      "name": "numWinners",
      "outputs": [
        {
          "internalType": "uint256",
          "name": "",
          "type": "uint256"
        }
      ],
      "stateMutability": "view",
      "type": "function",
      "constant": true
    },
    {
      "inputs": [],
      "name": "owner",
      "outputs": [
        {
          "internalType": "address",
          "name": "",
          "type": "address"
        }
      ],
      "stateMutability": "view",
      "type": "function",
      "constant": true
    },
    {
      "inputs": [],
      "name": "placeBid",
      "outputs": [],
      "stateMutability": "payable",
      "type": "function",
      "payable": true
    },
    {
      "inputs": [],
      "name": "endAuction",
      "outputs": [],
      "stateMutability": "nonpayable",
      "type": "function"
    }
  ],
  "bytecode": "0x60806040523480156200001157600080fd5b506040516200106038038062001060833981810160405281019062000037919062000130565b600082116200007d576040517f08c379a0000000000000000000000000000000000000000000000000000000008152600401620000749062000241565b60405180910390fd5b60008111620000c3576040517f08c379a0000000000000000000000000000000000000000000000000000000008152600401620000ba9062000263565b60405180910390fd5b336000806101000a81548173ffffffffffffffffffffffffffffffffffffffff021916908373ffffffffffffffffffffffffffffffffffffffff16021790555081600281905550806001819055505050620002ba565b6000815190506200012a81620002a0565b92915050565b600080604083850312156200014457600080fd5b6000620001548582860162000119565b9250506020620001678582860162000119565b9150509250929050565b60006200018060288362000285565b91507f4e756d626572206f662077696e6e657273206d7573742062652067726561746560008301527f72207468616e20300000000000000000000000000000000000000000000000006020830152604082019050919050565b6000620001e860258362000285565b91507f4d61782062696420616d6f756e74206d7573742062652067726561746572207460008301527f68616e20300000000000000000000000000000000000000000000000000000006020830152604082019050919050565b600060208201905081810360008301526200025c8162000171565b9050919050565b600060208201905081810360008301526200027e81620001d9565b9050919050565b600082825260208201905092915050565b6000819050919050565b620002ab8162000296565b8114620002b757600080fd5b50565b610d9680620002ca6000396000f3fe6080604052600436106100705760003560e01c80638b7bcc861161004e5780638b7bcc86146101095780638da5cb5b14610134578063ecfc7ecc1461015f578063fe67a54b1461016957610070565b80634423c5f1146100755780634c9981f6146100b357806386433374146100de575b600080fd5b34801561008157600080fd5b5061009c60048036038101906100979190610978565b610180565b6040516100aa929190610b0f565b60405180910390f35b3480156100bf57600080fd5b506100c86101d4565b6040516100d59190610bd3565b60405180910390f35b3480156100ea57600080fd5b506100f36101da565b6040516101009190610b38565b60405180910390f35b34801561011557600080fd5b5061011e6101ed565b60405161012b9190610bd3565b60405180910390f35b34801561014057600080fd5b506101496101f3565b6040516101569190610af4565b60405180910390f35b610167610217565b005b34801561017557600080fd5b5061017e610357565b005b6003818154811061019057600080fd5b90600052602060002090600202016000915090508060000160009054906101000a900473ffffffffffffffffffffffffffffffffffffffff16908060010154905082565b60015481565b600460009054906101000a900460ff1681565b60025481565b60008054906101000a900473ffffffffffffffffffffffffffffffffffffffff1681565b600460009054906101000a900460ff1615610267576040517f08c379a000000000000000000000000000000000000000000000000000000000815260040161025e90610b93565b60405180910390fd5b6001543411156102ac576040517f08c379a00000000000000000000000000000000000000000000000000000000081526004016102a390610bb3565b60405180910390fd5b600360405180604001604052803373ffffffffffffffffffffffffffffffffffffffff16815260200134815250908060018154018082558091505060019003906000526020600020906002020160009091909190915060008201518160000160006101000a81548173ffffffffffffffffffffffffffffffffffffffff021916908373ffffffffffffffffffffffffffffffffffffffff160217905550602082015181600101555050565b60008054906101000a900473ffffffffffffffffffffffffffffffffffffffff1673ffffffffffffffffffffffffffffffffffffffff163373ffffffffffffffffffffffffffffffffffffffff16146103e5576040517f08c379a00000000000000000000000000000000000000000000000000000000081526004016103dc90610b53565b60405180910390fd5b600460009054906101000a900460ff1615610435576040517f08c379a000000000000000000000000000000000000000000000000000000000815260040161042c90610b73565b60405180910390fd5b6001600460006101000a81548160ff021916908315150217905550610458610611565b60006003805490506002541161047057600254610477565b6003805490505b90506000600360018361048a9190610c55565b815481106104c1577f4e487b7100000000000000000000000000000000000000000000000000000000600052603260045260246000fd5b906000526020600020906002020160010154905060005b828110156105a5576003818154811061051a577f4e487b7100000000000000000000000000000000000000000000000000000000600052603260045260246000fd5b906000526020600020906002020160000160009054906101000a900473ffffffffffffffffffffffffffffffffffffffff1673ffffffffffffffffffffffffffffffffffffffff166108fc839081150290604051600060405180830381858888f19350505050158015610591573d6000803e3d6000fd5b50808061059d90610cd1565b9150506104d8565b5060008054906101000a900473ffffffffffffffffffffffffffffffffffffffff1673ffffffffffffffffffffffffffffffffffffffff166108fc479081150290604051600060405180830381858888f1935050505015801561060c573d6000803e3d6000fd5b505050565b6000600380549050905060005b8181101561095f5760006001826106359190610bff565b90505b8281101561094b576003828154811061067a577f4e487b7100000000000000000000000000000000000000000000000000000000600052603260045260246000fd5b906000526020600020906002020160010154600382815481106106c6577f4e487b7100000000000000000000000000000000000000000000000000000000600052603260045260246000fd5b90600052602060002090600202016001015410156109385760006003838154811061071a577f4e487b7100000000000000000000000000000000000000000000000000000000600052603260045260246000fd5b90600052602060002090600202016040518060400160405290816000820160009054906101000a900473ffffffffffffffffffffffffffffffffffffffff1673ffffffffffffffffffffffffffffffffffffffff1673ffffffffffffffffffffffffffffffffffffffff1681526020016001820154815250509050600382815481106107cf577f4e487b7100000000000000000000000000000000000000000000000000000000600052603260045260246000fd5b906000526020600020906002020160038481548110610817577f4e487b7100000000000000000000000000000000000000000000000000000000600052603260045260246000fd5b90600052602060002090600202016000820160009054906101000a900473ffffffffffffffffffffffffffffffffffffffff168160000160006101000a81548173ffffffffffffffffffffffffffffffffffffffff021916908373ffffffffffffffffffffffffffffffffffffffff1602179055506001820154816001015590505080600383815481106108d4577f4e487b7100000000000000000000000000000000000000000000000000000000600052603260045260246000fd5b906000526020600020906002020160008201518160000160006101000a81548173ffffffffffffffffffffffffffffffffffffffff021916908373ffffffffffffffffffffffffffffffffffffffff16021790555060208201518160010155905050505b808061094390610cd1565b915050610638565b50808061095790610cd1565b91505061061e565b5050565b60008135905061097281610d49565b92915050565b60006020828403121561098a57600080fd5b600061099884828501610963565b91505092915050565b6109aa81610c89565b82525050565b6109b981610c9b565b82525050565b60006109cc602583610bee565b91507f4f6e6c7920746865206f776e65722063616e2063616c6c20746869732066756e60008301527f6374696f6e0000000000000000000000000000000000000000000000000000006020830152604082019050919050565b6000610a32601583610bee565b91507f41756374696f6e20616c726561647920656e64656400000000000000000000006000830152602082019050919050565b6000610a72601183610bee565b91507f41756374696f6e2068617320656e6465640000000000000000000000000000006000830152602082019050919050565b6000610ab2601683610bee565b91507f4269642065786365656473206d617820616d6f756e74000000000000000000006000830152602082019050919050565b610aee81610cc7565b82525050565b6000602082019050610b0960008301846109a1565b92915050565b6000604082019050610b2460008301856109a1565b610b316020830184610ae5565b9392505050565b6000602082019050610b4d60008301846109b0565b92915050565b60006020820190508181036000830152610b6c816109bf565b9050919050565b60006020820190508181036000830152610b8c81610a25565b9050919050565b60006020820190508181036000830152610bac81610a65565b9050919050565b60006020820190508181036000830152610bcc81610aa5565b9050919050565b6000602082019050610be86000830184610ae5565b92915050565b600082825260208201905092915050565b6000610c0a82610cc7565b9150610c1583610cc7565b9250827fffffffffffffffffffffffffffffffffffffffffffffffffffffffffffffffff03821115610c4a57610c49610d1a565b5b828201905092915050565b6000610c6082610cc7565b9150610c6b83610cc7565b925082821015610c7e57610c7d610d1a565b5b828203905092915050565b6000610c9482610ca7565b9050919050565b60008115159050919050565b600073ffffffffffffffffffffffffffffffffffffffff82169050919050565b6000819050919050565b6000610cdc82610cc7565b91507fffffffffffffffffffffffffffffffffffffffffffffffffffffffffffffffff821415610d0f57610d0e610d1a565b5b600182019050919050565b7f4e487b7100000000000000000000000000000000000000000000000000000000600052601160045260246000fd5b610d5281610cc7565b8114610d5d57600080fd5b5056fea26469706673582212206be4167d4b45d146b1285265ef3745d26f0abd6d0f2efc76dcab0515d1529ce764736f6c63430008000033",
  "immutableReferences": {},
  "source": "// SPDX-License-Identifier: MIT\r\npragma solidity ^0.8.0;\r\n\r\ncontract ReverseAuction {\r\n    struct Bid {\r\n        address bidder;\r\n        uint256 amount;\r\n    }\r\n\r\n    address public owner;\r\n    uint256 public maxBidAmount;\r\n    uint256 public numWinners;\r\n    Bid[] public bids;\r\n    bool public auctionEnded;\r\n\r\n    constructor(uint256 _numWinners, uint256 _maxBidAmount) {\r\n        require(_numWinners > 0, \"Number of winners must be greater than 0\");\r\n        require(_maxBidAmount > 0, \"Max bid amount must be greater than 0\");\r\n\r\n        owner = msg.sender;\r\n        numWinners = _numWinners;\r\n        maxBidAmount = _maxBidAmount;\r\n    }\r\n\r\n    modifier onlyOwner() {\r\n        require(msg.sender == owner, \"Only the owner can call this function\");\r\n        _;\r\n    }\r\n\r\n    function placeBid() external payable {\r\n        require(!auctionEnded, \"Auction has ended\");\r\n        require(msg.value <= maxBidAmount, \"Bid exceeds max amount\");\r\n\r\n        bids.push(Bid(msg.sender, msg.value));\r\n    }\r\n\r\n    function endAuction() external onlyOwner {\r\n        require(!auctionEnded, \"Auction already ended\");\r\n        auctionEnded = true;\r\n\r\n        sortBids();\r\n\r\n        uint256 totalWinners = numWinners > bids.length ? bids.length : numWinners;\r\n        uint256 rewardAmount = bids[totalWinners - 1].amount;\r\n\r\n        for (uint256 i = 0; i < totalWinners; i++) {\r\n            payable(bids[i].bidder).transfer(rewardAmount);\r\n        }\r\n\r\n        payable(owner).transfer(address(this).balance);\r\n    }\r\n\r\n    function sortBids() internal {\r\n        uint256 len = bids.length;\r\n        for (uint256 i = 0; i < len; i++) {\r\n            for (uint256 j = i + 1; j < len; j++) {\r\n                if (bids[j].amount < bids[i].amount) {\r\n                    Bid memory temp = bids[i];\r\n                    bids[i] = bids[j];\r\n                    bids[j] = temp;\r\n                }\r\n            }\r\n        }\r\n    }\r\n}\r\n",
  "sourcePath": "C:\\Users\\athar\\OneDrive\\Desktop\\reverse-auction\\contracts\\ReverseAuction.sol",
  "compiler": {
    "name": "solc",
    "version": "0.8.0+commit.c7dfd78e.Emscripten.clang"
  },
  "schemaVersion": "3.4.16",
  "updatedAt": "2024-12-28T05:27:36.893Z",
  "networkType": "ethereum",
  "devdoc": {
    "kind": "dev",
    "methods": {},
    "version": 1
  },
  "userdoc": {
    "kind": "user",
    "methods": {},
    "version": 1
  }
}